:02000002B0004C
:1040000000400B00546E0B00000006000C0005027F
:0840100004011F0C0000000078
:044018007C670B00B6
:10401C0009480A49884208B505D0094A824202D0AB
:10402C00121A02F029FB0748074A0021121A02F063
:10403C004BFB014808BD00BF90E50320C46D0B008D
:10404C00F8E50320F8E50320F0E7032070B5074EF0
:10405C00074C02F0A5F9A41BA4080025A54200D129
:10406C0070BD56F8043B98470135F7E7946D0B008B
:10407C00B86D0B0000F0B8B808B500F0B7F8BDE8A3
:10408C00084002F045B900F021BC00F027BC0078D4
:10409C00B0FA80F04009704701230370704710B5E7
:1040AC000446006808B100F019FC204610BD134608
:1040BC00042200F01BBF000010B596B001F020F8F0
:1040CC003F4901F06BF801F01BF83E4A01460DA880
:1040DC0001F038FC0DA801F0E4F801F011F83A4AAF
:1040EC0001460DA801F02EFC0DA801F0DAF801F044
:1040FC0007F8364A01460DA801F024FC0DA801F082
:10410C00D0F800F0FDFF324A01460DA801F01AFC70
:10411C000DA801F0C6F800F0F3FF2E4A01460DA8D9
:10412C0001F010FC0DA801F0BCF800F0E9FF2A4AE0
:10413C0001460DA801F006FC0DA801F0B2F800F044
:10414C00DFFF264A01460DA801F0FCFB0DA801F08B
:10415C00A8F800F0D5FF224A01460DA801F0F2FBA9
:10416C000DA801F09EF80DA800F05BFE1D4903A8F8
:10417C0000F05CFD03A908A800F058FD08A800F0A9
:10418C009BFD044608A89CB900F0B2FD0094ADF864
:10419C000A0002230DF10A0203210DA800F036FEDD
:1041AC0000F0AEFF00220DA901F01EF816B010BDF4
:1041BC0000F0A0FD00230093024610230721ECE73A
:1041CC0090670B0044E603202CE6032034E6032022
:1041DC001CE6032024E603204CE6032054E60320CF
:1041EC003CE6032008E603207047000007B5FFF704
:1041FC0063FF012301A91B4801930022FFF757FF1E
:10420C00022301A9184801930022FFF750FF032352
:10421C0001A9164801930022FFF749FF04230DEB77
:10422C000301134801930022FFF741FF052301A965
:10423C00104801930022FFF73AFF062301A90E480C
:10424C0001930022FFF733FF07230C480193002250
:10425C0001A9FFF72CFF41F2883003B05DF804EBA5
:10426C0000F064BB2CE6032034E603201CE603209C
:10427C0024E6032044E6032054E603204CE6032006
:10428C00F0B5164691B00022C0E9002204460D4656
:10429C000BAF194606A800F0C9FC1699384600F079
:1042AC00C5FC33788DF81430189B0293179B20466D
:1042BC00CDE9007305AA06AB294601F019FA204690
:1042CC0011B0F0BD2DE9F047754D764E764B774F1A
:1042DC00AB60002490B0C5E90044032000F06AFAFA
:1042EC0032467349DFF814A2DFF81482284602F034
:1042FC0089F87049384606AD4FF0100900F07AFD88
:10430C006D498DF814900BA800F074FD39462846C1
:10431C0000F08CFC0BAB05AACDE901446749009574
:10432C005046FFF7ADFF32464146504602F06AF860
:10433C00DFF8D0A162498DF814900BA800F05AFD5B
:10434C003946284600F072FC0BAB05AACDE90144B6
:10435C005C4900955046FFF793FF32464146504664
:10436C0002F050F8DFF8A0A157498DF814900BA873
:10437C0000F040FD3946284600F058FC0BAB05AA6E
:10438C00CDE90144514900955046FFF779FF32467B
:10439C004146504602F036F8DFF870A14C498DF8D2
:1043AC0014900BA800F026FD3946284600F03EFC80
:1043BC000BAB05AACDE90144464900955046FFF7E1
:1043CC005FFF32464146504602F01CF8DFF840A130
:1043DC0041498DF814900BA800F00CFD3946284685
:1043EC0000F024FC0BAB05AACDE901443B49009538
:1043FC005046FFF745FF32464146504602F002F860
:10440C00DFF810A136498DF814900BA800F0F2FCDF
:10441C003946284600F00AFC0BAB05AACDE901444D
:10442C00304900955046FFF72BFF32464146504627
:10443C0001F0E8FFDFF8E0A02B498DF814900BA8F1
:10444C0000F0D8FC3946284600F0F0FB0BAB05AA6F
:10445C00CDE90144254900955046FFF711FF32463E
:10446C004146504601F0CEFF21498DF814900BA81F
:10447C0000F0C0FC39461F4F284600F0D7FB05AAB8
:10448C00CDE901441C4900950BAB3846FFF7F8FE0B
:10449C0032464146384610B0BDE8F04701F0B2BF95
:1044AC00FCE50320F8E503200000FFFF08E60320ED
:1044BC00AB400B0097670B00BC670B00E1670B0070
:1044CC00F1670B0016680B0024680B0049680B00A1
:1044DC0058680B007D680B008B680B00B0680B00F4
:1044EC00C3680B00E8680B00F8680B001D690B0033
:1044FC002E690B003CE6032053690B002CE60320CD
:10450C00AF520B0034E603201CE6032024E6032004
:10451C0044E6032054E603204CE60320FFF7D2BE0A
:10452C0008B5024B1B689B68019308BD7802030019
:10453C0008B5024B1B681B6A019308BD7802030087
:10454C0008B5024B1B681B6D019308BD7802030074
:10455C0008B5024B1B689B6D019308BD78020300E4
:10456C0008B5024B1B681B6E019308BD7802030053
:10457C0008B5034B1B68D3F89830019308BD0000B5
:10458C007802030008B5034B1B68D3F8A8300193DD
:10459C0008BD00007802030008B5034B1B68D3F874
:1045AC00B430019308BD00007802030008B5034B3A
:1045BC001B68D3F8D830019308BD000078020300C3
:1045CC0008B5034B1B68D3F8DC30019308BD000021
:1045DC007802030008B5034B1B68D3F8EC30019349
:1045EC0008BD00007802030008B5034B1B68D3F824
:1045FC00F030019308BD00007802030008B5034BAE
:10460C001B68D3F80031019308BD00007802030049
:10461C0008B5034B1B68D3F80431019308BD0000A7
:10462C007802030008B5024B1B685B6C019308BD54
:10463C004802030008B5024B1B689B6C019308BD34
:10464C004802030008B5024B1B68DB6C019308BDE4
:10465C004802030008B5024B1B685B6D019308BD53
:10466C004802030008B5024B1B685B68019308BD48
:10467C001802030008B5024B1B68DB68019308BDE8
:10468C001802030008B5024B1B685B69019308BD57
:10469C001802030008B5024B1B685B69019308BD47
:1046AC006402030008B5024B1B689B68019308BDAC
:1046BC006802030008B5024B1B68DB68019308BD58
:1046CC006802030008B5024B1B681B68019308BD08
:1046DC003C02030008B5024B1B68DB68019308BD64
:1046EC003C02030008B5024B1B681B69019308BD13
:1046FC003C02030008B5024B1B685B69019308BDC3
:10470C003C02030008B5024B1B689B69019308BD72
:10471C003C02030008B5024B1B68DB69019308BD22
:10472C003C02030008B5024B1B689B6A019308BD51
:10473C003C02030008B5024B1B681B68019308BDC3
:10474C004C02030008B5024B1B681B69019308BDA2
:10475C004C02030008B5024B1B685B69019308BD52
:10476C004C02030008B5024B1B689B69019308BD02
:10477C004C02030008B5024B1B68DB69019308BDB2
:10478C004C02030008B5024B1B681B6A019308BD61
:10479C004C02030008B5024B1B685B6B019308BD10
:1047AC006002030008B5024B1B681B6D019308BD2A
:1047BC006002030008B5024B1B685B68019308BDDF
:1047CC002002030008B5024B1B685B69019308BD0E
:1047DC002002030008B5034B1B68D3F88830019303
:1047EC0008BD00002002030008B5034B1B68D3F87A
:1047FC009430019308BD00002002030008B5024B61
:10480C001B68DB6B019308BD4402030008B5024B27
:10481C001B685B68019308BD4002030008B5024B9E
:10482C001B689B68019308BD4002030008B5024B4E
:10483C001B68DB68019308BD4002030008B5024BFE
:10484C001B681B69019308BD4002030008B5024BAD
:10485C001B685B69019308BD4002030008B5024B5D
:10486C001B689B69019308BD4002030008B5024B0D
:10487C001B68DB69019308BD4002030008B5024BBD
:10488C001B681B6A019308BD4002030008B5024B6C
:10489C001B681B6B019308BD4002030008B5024B5B
:1048AC001B685B6B019308BD4002030008B5024B0B
:1048BC001B681B6C019308BD4002030008B5024B3A
:1048CC001B685B6C019308BD4002030008B5024BEA
:1048DC001B681B68019308BD1C02030008B5024B42
:1048EC001B685B68019308BD1C02030008B5024BF2
:1048FC001B689B68019308BD1C02030008B5024BA2
:10490C001B68DB6A019308BD1C02030008B5024B4F
:10491C001B681B6C019308BD1C02030008B5024BFD
:10492C001B685B6C019308BD1C0203000021FFF7A0
:10493C0049BF70477047704770470000064B99425B
:10494C0010B500F10C0405D0084601F065FD0028F7
:10495C0008BF0024204610BDA86A0B00064B9942E4
:10496C0010B500F10C0405D0084601F055FD0028E7
:10497C0008BF0024204610BDA86A0B00064B9942C4
:10498C0010B500F10C0405D0084601F045FD0028D7
:10499C0008BF0024204610BDA86A0B0010B5682182
:1049AC00044601F034FD204610BD10B52821044604
:1049BC0001F02DFD204610BD10B53021044601F04C
:1049CC0026FD204610BD682101F021BD282101F0F3
:1049DC001EBD302101F01BBD10B50446006808B1A6
:1049EC00FFF728FE204610BDF0B50025EC1C8C42CC
:1049FC000DD86E1C445D875D974205D12644B142AB
:104A0C0005D31D60601CF0BD01342544EEE7002089
:104A1C00F9E72DE9F34704469DF828701E468946B0
:104A2C0001AB90460A46016AFFF7DEFF256AB31C0C
:104A3C000FBB00B35F193F1A1F2F18D8DDF8049075
:104A4C0009F1020AA5EB090206EB0A03121A484403
:104A5C00211892B2E01801F01DFE731C04F8093005
:104A6C003246414604EB0A0001F006FE2762206A3A
:104A7C0002B0BDE8F0872B441F2BF8D8731C63558C
:104A8C00A81C25442062324685F8019041462044FA
:104A9C0001F0F2FD236A33442362E8E7024A002165
:104AAC000A20FFF777BE00BF81460B0030B40D46DD
:104ABC0011461A46036809682868D3E90043A446DE
:104ACC0030BC6047012A38B5044602D10B6823601C
:104ADC0003E0022A03D0032A0DD0002038BD0820A1
:104AEC000D68FFF7D0FA03460028F0D095E80300D4
:104AFC0083E80300EBE700680028EED0082101F002
:104B0C0086FCEAE710B58368044613B1032201461C
:104B1C009847204610BD10B504465830FFF7F2FFF9
:104B2C0004F14800BDE8104001F0F6B910B5436837
:104B3C00013B0446436063B903689B689847A368CC
:104B4C00013BA3602BB923682046DB68BDE810400D
:104B5C00184710BDA0F13003DAB2092A01D8184663
:104B6C007047A0F16103052B01D857387047A0F1AD
:104B7C004103052B94BF37384FF0FF3070470000CE
:104B8C0010B500230370044B04461868FFF75AFD58
:104B9C0001232370204610BD64E6032010B5037872
:104BAC0004461BB1024B1868FFF754FD204610BD9C
:104BBC0064E6032082B00346086849686A4603C26B
:104BCC006A4603CA18601846596002B0704708B5A7
:104BDC0082798B799A4206D1062201F03DFDB0FA1A
:104BEC0080F0400908BD0020FCE74FF0FF33036064
:104BFC0083800020704708B50246002101604160A7
:104C0C00FFF7F3FF9171104608BD000010B50123AA
:104C1C000361054B024603F1100153F8044B42F8B3
:104C2C00044B8B42F9D110BDB66A0B0010B50B6961
:104C3C00036101F11002034651F8044B43F8044B95
:104C4C009142F9D110BD10B50B460446B1B1012A01
:104C5C0001F110020AD1014653F8040B41F8040B80
:104C6C009342F9D101232361204610BD411E12F855
:104C7C00010D01F8010F9A42F9D1F3E7102201F06E
:104C8C0023FDF1E738B5044615461A46FFF7DBFF5E
:104C9C00A581204638BD000008B5026922B980897B
:104CAC00003818BF012008BD0249102201F0D4FCC5
:104CBC00F6E700BFD66A0B000069704738B50C46A2
:104CCC0014220021054601F0FFFC23691BB9A389BE
:104CDC002B80284638BD01232B7421462B4604F12A
:104CEC00100251F8040B43F8040B9142F9D1F0E790
:104CFC0080897047704708B502690B699A4206D1E2
:104D0C00102201F0A9FCB0FA80F0400908BD002087
:104D1C00FCE7000001232DE9F3410361344B0C4601
:104D2C000646024603F1100153F8040B42F8040B3B
:104D3C008B42F9D144B32421204601F00DFD042807
:104D4C004FF0000523D1ADF8045001AFA51C06347B
:104D5C0015F8020CFFF7FEFEB0F1000812DB15F897
:104D6C00010CFFF7F7FE00280CDB023540EA0810B7
:104D7C00A54207F8010BEBD19DF8053033739DF874
:104D8C00043073730023336102B0BDE8F0814FF03F
:104D9C0010082421204601F0DFFCA84207D8424627
:104DAC000021304602B0BDE8F04101F08DBCB8F1F5
:104DBC00000FE9D0605DFFF7CDFE030615D40001AE
:104DCC0008F1FF38C7B206F808702421204601F01C
:104DDC00C3FC0135A84208D9605DFFF7BBFE40B2A9
:104DEC000028A4BF384306F808000135D1E700BFFE
:104DFC00B66A0B0013B504460191FFF707FF204676
:104E0C000199FFF787FF204602B010BD30B49DF822
:104E1C0008501AB1029530BCFFF7FBBD006A30BCDC
:104E2C0070471FB504461F22002101F04DFC0023E2
:104E3C0023620093062201238DF80F2019460DF1F1
:104E4C000F022046FFF7E2FF204604B010BD73B5F9
:104E5C000A460E4601AB016A0446FFF7C5FD05463E
:104E6C0078B10198226A4119121A2144521B20442C
:104E7C0001F002FC206A401B206231462046FFF7FD
:104E8C00E6FF02B070BD000038B54FF6FF73002589
:104E9C00044643800E22294605700571063001F048
:104EAC0013FC04F11400FFF7B1FE04F12800FFF726
:104EBC00ADFE044904F13C0001F079F8656520462B
:104ECC0038BD00BF9E690B0010B5D0E9063203EB6C
:104EDC00C2029342184606D0046824888C4203F11F
:104EEC000803F6D110BD0020FCE70000F0B5064623
:104EFC0085B01F460D46002950D0002A4ED00468BC
:104F0C002378F42A28BFF42243B32379980709D5D0
:104F1C00A08903920023FFF73FFB0028039A03DAD2
:104F2C0005B0F0BD6FF0770034682379D90609D548
:104F3C00012F07D0A0890023294605B0BDE8F04019
:104F4C00FFF75CBB9B06EBD5022FE9D0A0890023B1
:104F5C00294605B0BDE8F040FFF75ABB60884FF614
:104F6C00FF7188421CD021794E0701D5012F04D145
:104F7C000B0709D46FF07700D2E7A1890093134691
:104F8C002A46FFF71DFBCBE7022FF3D00023A189A4
:104F9C00009313462A46FFF709FBC1E70248BFE717
:104FAC006FF0D100BCE700BFF2FEFFFF2DE9F0412E
:104FBC0000260660074628200C46FFF764F8051EFD
:104FCC0005F10C080FD00123C5E90133084B2B6008
:104FDC004046FFF71BFE0FCC2E6285F82460464638
:104FEC000FC623683360C7E900853846BDE8F081F9
:104FFC00786A0B0070B50025056006463020FFF777
:10500C0042F8044688B10123C0E90133094B03601F
:10501C004FF6FF7383810E30FFF7EDFDC4E90655A3
:10502C00C4E90855C4E90A55A57574600C3434609C
:10503C00304670BD946A0B0037B50D46044601A886
:10504C00FFF79EFD2A68D2F802302360D2F80630B2
:10505C00636001A8FFF7A2FD204603B030BD30B558
:10506C00054687B00C4601A8FFF78AFD2A6823681D
:10507C0012881B889A420DD1294602A8FFF7DCFF43
:10508C00214604A8FFF7D8FF04A902A8FFF79FFD4B
:10509C00044600B9002401A8FFF780FD204607B0A4
:1050AC0030BD000010B504465420FEF7ECFF01465D
:1050BC0060B10023C0E90033C0E90233C0E9043316
:1050CC00C0E906330362C362C363C364216019B9C8
:1050DC00094A0A20FFF75EFB0020FFF721FA20B1F6
:1050EC00054A00210A20FFF755FB216803480022DE
:1050FC00FFF77AFA204610BD81460B00AD540B0029
:10510C0010B50B4C2378BFF35B8FDB070ED4204616
:10511C00FEF7BDFF50B10748FFF7C4FF2046FEF76E
:10512C00BBFF054A0549034801F06CF9014810BD65
:10513C005CE6032068E60320F8E5032019530B0016
:10514C0030B50368093B012B8DB004460D4611D8D0
:10515C00FFF7D6FFA1880068FFF7B6FE034658B9E3
:10516C002022CDE904200B4A00920B4904AA3220DC
:10517C00FFF718FB0DB030BD6A6D002AFAD0D4E9E8
:10518C00032105F14C00CDE90312AC6D04AA03A96F
:10519C00A047EFE787690B0060690B0010B50C4660
:1051AC002046142101F0D8FA002201462046BDE821
:1051BC001040FFF7BDB9084611B90A46FFF7C0B950
:1051CC00096A0022FAE707B5084629B90A4603B06E
:1051DC005DF804EBFFF7BCB901210190FFF737FE36
:1051EC0001980022016AF2E738B504461546FFF72C
:1051FC00E2FF00280ADB29462046FFF7E4FF0028DF
:10520C0004DBBDE838400020FFF7AAB938BD000028
:10521C0038B500230446836008200D46FEF733FFA3
:10522C0018B12B6803606B684360034BE360034B5E
:10523C002060A360204638BDB94A0B00D14A0B0050
:10524C000B68036013B15A6801325A60704710B58D
:10525C0051F8043B044640F8043BFFF7F1FF236888
:10526C000BB9FFF71BFC204610BD10B551F8043BE1
:10527C00044640F8043BFFF7E3FF204610BD10B591
:10528C0051F8043B044640F8043BFFF7D9FF204695
:10529C0010BD10B50446006808B1FFF747FC204666
:1052AC0010BD10B504460430FFF7F3FF204610BDC7
:1052BC0070B5D0E90053044605EBC306AE4204D0EA
:1052CC00281DFFF7E6FF0835F8E72068FFF706FB17
:1052DC00204670BD70B5D0E90053044605EBC306FB
:1052EC00AE4204D0281DFFF7D4FF0835F8E720683C
:1052FC00FFF7F4FA204670BD10B504462430FFF7D2
:10530C00E9FF04F11800FFF7D3FF10BDF8B50468EE
:10531C00064624B304F14400FFF7F4FB04F1340017
:10532C00FFF7F0FB04F12400FFF7ECFBD4E9065384
:10533C0005EBC307AF4204D0281DFFF7AAFF0835C1
:10534C00F8E7A069FFF7CAFA04F10C00FFF7C2FFF7
:10535C002046FFF7ADFF5421204601F058F83046A7
:10536C00F8BD13B50023D1E90042C1E9003303684D
:10537C00009304604368426001A80193FFF789FF22
:10538C0002B010BD826810B50AB901F042F8BDE850
:10539C001040C36818478842F8B504460D461646B7
:1053AC0014D9904213D2A2F10806751AA1F108077C
:1053BC002C44B74218D01CB131462046FFF75FFF92
:1053CC00301DFFF766FF083E083CF2E70CD0B542F3
:1053DC000AD01CB129462046FFF751FF281DFFF7C4
:1053EC0058FF08350834F2E7F8BDF7B504464668AF
:1053FC006846FFF744FFD4E901739F4212DB013783
:10540C00002F29DDF800FFF761FA0546F0B1D4E969
:10541C00001201EBC202FFF7BEFF2068FFF75EFA35
:10542C002560A7602368626803EBC60603EBC20223
:10543C00314606F10800FFF7AEFF1EB16946304653
:10544C00FFF71DFF636801336360012501A8FFF7B7
:10545C0020FF284603B0F0BD0025DEE7F8B5D0E903
:10546C00004305460F4604EBC306A64205D0394659
:10547C002046FFF7F4FD08B114B9F8BD0834F4E781
:10548C00201DFFF706FFD5E9003204F1080103EBFC
:10549C00C2022046FFF77FFF6B68013B6B60ECE7B5
:1054AC002DE9F04105468EB003A80C46FFF768FBCA
:1054BC002E68042E6DD007D8032E2AD003A8FFF730
:1054CC006DFB0EB0BDE8F081A6F10C03042BF5D8F2
:1054DC00A9892046FFF7F8FC07460028EED0E36CBC
:1054EC00002BEBD01022002107A801F0EDF80D2EB7
:1054FC0006978DF81C6002D0102E40F092806B68DD
:10550C00099306230893236D06A904F144009847D8
:10551C00D4E704A8FFF76EFD049BAA891A8069687A
:10552C00049808310230FFF745FB04A906A8FFF7E1
:10553C00A6FE06A904F11800FFF757FF054607A8B9
:10554C00FFF7A7FE202306938DB93E4B3E490093EF
:10555C0032202B4606AA0795FFF724F9049B29460F
:10556C001888FFF705F805A8FFF793FEA6E7374A5A
:10557C00009200233449079306AA0120FFF712F981
:10558C00E36A002BEFD004A904F12400FFF7FAFE24
:10559C00E9E7A9892046FFF797FC064600288DD03D
:1055AC000568D5E906324FF6FF71298003EBC2027C
:1055BC009A4203D053F8080B4180F9E7D5E90373FD
:1055CC0007EBC308B84504D0381DFFF762FE083757
:1055DC00F8E700232B61D5E9067307EBC308B84540
:1055EC0004D0381DFFF755FE0837F8E70023EB61B0
:1055FC00AB72E36B23B1314604F13400FFF7C2FE0A
:10560C0000232022CDE90623114A00920E4906AA56
:10561C000120FFF7C7F8314604F11800FFF71EFF11
:10562C004CE70F2E7FF46FAF6B6809932B7A03F066
:10563C000102C3F340038DF829308DF8282008238C
:10564C0060E700BF9F690B0060690B00C5690B0028
:10565C00E2690B0013B50B460246D0E900016C461B
:10566C0084E8030093E8030082E8030094E8030055
:10567C0083E8030002B010BD38B505460C46FFF7B1
:10568C00E9FFAB68A268AA60A360EB68E268EA6015
:10569C00E36038BD70B50E468CB0044601921D46D1
:1056AC00FFF7F2FB33780199237104F13C0000F011
:1056BC0092FC04F14C06CDB1109B029502A904A8F2
:1056CC000393FFF7A5FD002308A904A80A93FFF78D
:1056DC00D3FF314608A8FFF7CFFF08A8FFF712FA4F
:1056EC0004A8FFF70FFA20460CB070BD0695EAE748
:1056FC002DE9F04F89B01D46DDE9124380468A46FC
:10570C009346149903930022682002910692FEF7A7
:10571C00BAFC061E06F10C091CD001223746C6E95C
:10572C000122174A47F8202B02999BF80020039B73
:10573C008DF814200091524605A94846FFF7AAFFA0
:10574C000FCD0FC72B683B600FCC06F134050FC58E
:10575C0023682B6006A94046CDE90696FFF701FEAB
:10576C0007A8FFF796FDD8F8001031B9054A0A20B2
:10577C0009B0BDE8F04FFFF70DB809B0BDE8F08FE8
:10578C005C6A0B0081460B008842F8B504460D4656
:10579C00164614D9904213D2A2F10806751AA1F13B
:1057AC0008072C44B74218D01CB131462046FFF7ED
:1057BC005CFD301DFFF76DFD083E083CF2E70CD098
:1057CC00B5420AD01CB129462046FFF74EFD281DD4
:1057DC00FFF75FFD08350834F2E7F8BD70B50E1E13
:1057EC00054611DDF000FFF771F8044658B1D5E914
:1057FC00001201EBC202FFF7C7FF2868FFF76EF833
:10580C002C60AE60012070BD0024F6E773B5044631
:10581C0045686846FFF729FDD4E90113994210DA6F
:10582C002368626803EBC50503EBC202294605F148
:10583C000800FFF7A9FF8DB9636801336360012687
:10584C0006E001312046FFF7C9FF06460028E7D1E4
:10585C0001A8FFF71EFD304602B070BD6946284610
:10586C00FFF703FDE8E78842F8B504460D461646F7
:10587C0014D9904213D2A2F10806751AA1F10807A7
:10588C002C44B74218D01CB131462046FFF7DFFC40
:10589C00301DFFF7FEFC083E083CF2E70CD0B54289
:1058AC000AD01CB129462046FFF7D1FC281DFFF772
:1058BC00F0FC08350834F2E7F8BD70B50E1E05464D
:1058CC0011DDF000FFF702F8044658B1D5E90012DB
:1058DC0001EBC202FFF7C7FF2868FEF7FFFF2C6041
:1058EC00AE60012070BD0024F6E773B50446456830
:1058FC006846FFF7ACFCD4E90113994210DA23682F
:10590C00626803EBC50503EBC202294605F10800EA
:10591C00FFF7A9FF8DB9636801336360012606E0C8
:10592C0001312046FFF7C9FF06460028E7D101A840
:10593C00FFF7AFFC304602B070BD69462846FFF752
:10594C0086FCE8E72DE9F04F1746A1B080460AA87F
:10595C000E46FFF715F93C68237953B93946404692
:10596C00FFF775FC0AA8FFF719F9404621B0BDE80E
:10597C00F08F3368D3E9035305EBC303039304F1AE
:10598C00280A04F1140B039B9D4221D0D5F80090FA
:10599C00584609F11401FFF7AEF9B8B109F1280125
:1059AC005046FFF7A8F988B12368D9F80020534076
:1059BC0033F47F430AD12022CDE915235E4A0092AD
:1059CC0015AA5E493220FEF7EDFEC7E70835DAE787
:1059DC005046FFF761F960B95949012215A815AD78
:1059EC00FFF731F90FCDD446ACE80F002B68CCF89B
:1059FC0000303368D3E9005305EBC30B5D45A94672
:105A0C0051466ED055F8080BFFF775F90028F5D004
:105A1C0004F1140A5046FFF73FF988B9494B48493D
:105A2C001A88013292B21A8015A8012315ADFFF71E
:105A3C0029F90FCDD446ACE80F002B68CCF8003018
:105A4C00414B15932822002116A800F03DFE51462B
:105A5C0004A8FFF733F904AB18AA0DF1200C186851
:105A6C005968154603C5083363452A46F7D11868AB
:105A7C00286023798DF85830D9F800309B8AADF81E
:105A8C007430E36B1793314B0022A11D15A8CDE99F
:105A9C001E34FEF79FFD00287FF460AF01232370B6
:105AAC00346839460C340DA8FFF7D1FB20460DA9FC
:105ABC00FFF71BFF04460EA8FFF7EBFB002C7FF44F
:105ACC004DAF2023CDE90D34214B00930DAA234675
:105ADC0077E739464046FFF7BAFB0CA8FFF7D9FB2E
:105AEC0040E70BA8FFF762FA514615A8FFF7E6F856
:105AFC000B9A0023143215A90120FEF743FD002850
:105B0C00E7D135680BA90DA8FFF7AFFB28460DA907
:105B1C00FFF77CFE05460EA8FFF7BBFB002DD8D087
:105B2C0032685368126803F10053013B0CA802EB76
:105B3C00C309FFF7AEFB6BE7016A0B0060690B0052
:105B4C00C66A0B0060E6032003002C004D510B00CD
:105B5C002C6A0B0010B5064C002320462360FEF780
:105B6C0061FD2046034A0449BDE8104000F04ABCE0
:105B7C0064E60320F8E50320E5490B0000224068A9
:105B8C001146FEF77BBE002240681146FEF786BE2A
:105B9C0040680022FEF77ABE4068002281F00101C5
:105BAC00FEF764BE002340681A461946FEF756BE3F
:105BBC00002340681A461946FEF748BE002240688A
:105BCC001146FEF73BBE002240681146FEF726BE8A
:105BDC00406800220221FEF729BE002340681A46C5
:105BEC00FEF714BE024B03225A60024A1A60704739
:105BFC006CE60320F06A0B00704710B518210446C0
:105C0C0000F005FC204610BDF0B5037D062B8DB0D1
:105C1C000E4600F104074FF0000412D000F1080505
:105C2C0015F8011D0A22304600F043F9AF42044436
:105C3C0019D0002CF4D02E21304600F037F9044452
:105C4C00EEE72F236A4639460A208DF80040FEF70E
:105C5C0021FD684600F078FD33680246DB68694632
:105C6C0030469847044620460DB0F0BD10B5054BA4
:105C7C000446112240F8043B002100F025FD20468B
:105C8C0010BD00BF2C6B0B000346074A10B543F840
:105C9C00042B01F1100251F8044B43F8044B9142D0
:105CAC00F9D10A781A7010BD2C6B0B0010B59DF849
:105CBC00084044EA032343EA024242EA0161042316
:105CCC004160037510BD000007B5064B0360CB782F
:105CDC0000938B784A780978FFF7E8FF03B05DF8FA
:105CEC0004FB00BF2C6B0B00014B024A1A6070477F
:105CFC0074E60320386B0B00002340681A46FEF74D
:105D0C0085BD406800220221FEF790BD002240684C
:105D1C001146FEF783BD002240681146FEF78EBD8A
:105D2C00002340681A461946FEF790BD00234068D0
:105D3C001A461946FEF792BD40680021FEF7B6BD23
:105D4C0040680021FEF7BABD4068002281F00101D5
:105D5C00FEF78CBD40680022FEF798BD002240681B
:105D6C001146FEF79BBD002240681146FEF786BD2A
:105D7C002DE9F04395B014460D460746FFF776FF24
:105D8C0000211C220DA8009100F09EFC40230C93D6
:105D9C0020466B460CAA0021FEF78CFC044600281A
:105DAC004BD1024601216868FEF748FD022180466E
:105DBC0022466868FEF742FD009E81462146002E71
:105DCC003BD0002939D17368022B03D00A2B11D098
:105DDC00F669F4E7B8F1000FFAD0716906A804313E
:105DEC0007ADFFF771FF0FCD3C1D0FC42B6823705F
:105DFC004146EDE7B9F1000FEAD07469102201A811
:105E0C0000F062FC06238DF8143001AD04F1080398
:105E1C001834186859682A4603C20833A342154639
:105E2C00F7D101A906A807ADFFF72EFF0FCD3C1D3A
:105E3C000FC42B6823704946CAE70098FEF732FC62
:105E4C00384615B0BDE8F083024B034A1A600022B5
:105E5C005A60704778E60320446B0B00F8B5064691
:105E6C000D468F180024BD420CD0336815F8011B69
:105E7C009B6830469847031E01DB1C44F3E7002C5B
:105E8C0008BF1C462046F8BD13B50446084659B158
:105E9C00019100F059FC23680199DB680246204609
:105EAC0002B0BDE81040184702B010BD03689B68F3
:105EBC00184730B58BB00023012A8DF8243098BFD9
:105ECC000A2209AC0D46B1FBF2F101FB125303F0AF
:105EDC00FF03092B94BF30333733DBB2AA4204F8EB
:105EEC00013DEFD92146FFF7CFFF0BB030BD10B508
:105EFC000446FEF707FE204610BD00000348044A86
:105F0C0004490023836000F07DBA00BF80E60320C3
:105F1C00F8E50320FB5E0B0010B504460068FEF7A5
:105F2C00DDFC204610BD10B50446006808B1FEF734
:105F3C00D5FC0023C4E90133236010BD38B50446F9
:105F4C000D4600680131FEF7D1FC10B1C4E9000523
:105F5C00012038BD10B50368044623B143688B4259
:105F6C0001D3012010BD2046FFF7E8FF0028F9D02F
:105F7C00A368002BF5D122681370F2E737B50D46F4
:105F8C00114601920446FFF7E5FF019A28B9204615
:105F9C00FFF7C9FF204603B030BDA2602946206838
:105FAC0000F06AFB2268A3680021D154F2E70023B9
:105FBC0013B5C0E9003304468360037341B108464E
:105FCC00019100F0C1FB019902462046FFF7D6FF74
:105FDC00204602B010BD13B5044659B108460191D4
:105FEC0000F0B2FB019902462046FFF7C7FF20469E
:105FFC0002B010BDFFF797FFF9E7000010B5094B91
:10600C00094C02221A600020084BA360C4E900006E
:10601C00FEF7D0FB2046064A0649BDE8104000F0CA
:10602C00F1B900BF9CE6032090E603200000FFFFBF
:10603C00F8E50320AB400B00024B1A68024B1A60C8
:10604C00704700BF90E50320A0E603207047417421
:10605C00704708B5007CFEF765FB20EAE07008BDD0
:10606C0008B5007CFEF73EFB20EAE07008BD08B5E1
:10607C00007CFEF747FB40EAE07008BD08B5007CE9
:10608C00FEF738FB40EAE07008BD007CFEF742BB2F
:10609C0037B5457C04462DB1207C03B0BDE83040BB
:1060AC00FEF718BB007C0191FEF73CFB0028019920
:1060BC00F2DC284603B030BD10B51421044600F0C4
:1060CC00A6F9204610BD000010B54FF0000C044698
:1060DC00084611464FF47A72C4E901C2044A2260A0
:1060EC000122207462741A46FEF7ECFA204610BDA9
:1060FC009C6B0B0013B50E4C2178BFF35B8F11F02A
:10610C00010112D120460191FDF7C1FF019960B147
:10611C00084A094B0948FFF7D7FF2046FDF7BCFF9B
:10612C00074A0849054800F06DF9044802B010BD53
:10613C00A4E60320A8E603202CE70320B0E7032005
:10614C00F8E5032059600B0041747047704708B59F
:10615C000021007CFEF706FB40EAE07008BD08B5A4
:10616C000121007CFEF7FEFA40EAE07008BD08B59C
:10617C00007CFEF7EFFA20EAE07008BD08B5007C61
:10618C00FEF7E0FA20EAE07008BD13B50446007C87
:10619C000191FEF7DFFA0028019901DC607C20B147
:1061AC00207CFEF7E7FA20EAE07002B010BD007C1C
:1061BC00FEF7E8BA10B51421044600F028F9204681
:1061CC0010BD000010B54FF47A7304460846002148
:1061DC00C4E90113044B236001232074637411463A
:1061EC00FEF7A8FA204610BDCC6B0B0010B514229C
:1061FC000446002100F068FA204610BD10B5104C82
:10620C0088B003A8FFF7F2FF2178BFF35B8F11F082
:10621C00010111D120460191FDF739FF019958B1C7
:10622C0003AA0848FFF7CEFF2046FDF735FF064AC4
:10623C000649044800F0E6F8024808B010BD00BF5B
:10624C00C4E70320C8E70320F8E5032059610B00DD
:10625C00002240681146FEF7F1BA00224068114650
:10626C00FEF70CBB002240681146FEF717BB4068D6
:10627C000022FEF70BBB4068002281F00101FEF703
:10628C00F5BA002340681A461946FEF7E7BA002310
:10629C0040681A461946FEF7D9BA002240681146E2
:1062AC00FEF7BCBA406800220221FEF7BFBA0023F9
:1062BC0040681A46FEF7AABA024B04225A60024AF8
:1062CC001A607047DCE70320FC6B0B00014B186075
:1062DC00704700BF94E5032008B50B4B43B1FFF7A3
:1062EC008DFF03681B699847002801DDAFF3008020
:1062FC00064B43B1FFF7FEFE03681B699847002865
:10630C0001DDAFF3008008BD0000000000000000BC
:10631C0008B5FFF7E1FFFEF7B5F9014B186008BDB2
:10632C00ECE703200548064A064908B5121A00F0A6
:10633C00A3F9054B054A1A6008BD00BF00F4032001
:10634C0004F40320C06D0B0000F403201E1C279ADC
:10635C0007B5002300931A466FF07701FEF744FA55
:10636C0003B05DF804FB000007B543880A2B08D086
:10637C00502B0BD1094B1B684BB103B05DF804EBF0
:10638C001847FFF7E5FF03B05DF804FB002300930B
:10639C001A466FF07701FEF727FAF4E7E8E70320D7
:1063AC0010B512480021FEF7B9FA114B1A68114BBF
:1063BC009A42114B0CBF012200221A7001D0FFF738
:1063CC00B1FFFEF74FF9044600F086F90B4B13B101
:1063DC002046AFF3008000210848FEF70FFABDE815
:1063EC00104007480021FEF7F5B900BFD9620B0039
:1063FC0000F403201E1C279AE4E703200000000091
:10640C0075630B000B460146184600F017B9FDF7F3
:10641C003CBE08B5FEF772FA014900F0F9B800BFAE
:10642C00486C0B007FB500241023CDE902340368BF
:10643C0015469E6912686B46CDE90044B0479DF83D
:10644C00043003F00603062B03BF009B2B600120D6
:10645C00204604B070BD0098904214BF0120062065
:10646C007047000010B5034B0360044600F0CDF8F4
:10647C00204610BD886C0B0010B50446FFF7F2FFE8
:10648C0020460821FFF7C3FF204610BD2DE9F0413F
:10649C001F46DDE90834DDF8188098450646154698
:1064AC0007D1079900F0B4F818B165710020BDE868
:1064BC00F0813946304600F0ABF80028F6D00123C5
:1064CC00C4F800802571A371F0E738B515461C4659
:1064DC0000F09EF820B10823E360062325602371A9
:1064EC0038BD73B505460C4601921E4600F090F877
:1064FC0050B9032E08D82368019A5B6929462046B7
:10650C0002B0BDE87040184702B070BD10B5034B27
:10651C0003600446FFF7A6FF204610BDE86C0B0095
:10652C0010B50446FFF7F2FF20460C21FFF76FFF72
:10653C00204610BDF7B5089F974205460E461446F7
:10654C000AD0A86802680897156A31462246AC46FC
:10655C0003B0BDE8F04060471946019300F058F8CD
:10656C00019B0028EDD0062003B0F0BD2DE9F14FC2
:10657C000D461946DDE90A4BDDE90CA681461746A6
:10658C00984600F045F890B1002D3460377109DB66
:10659C0061198A450CBF06210121B171002001B09F
:1065AC00BDE8F08F0235F9D10123B371F6E75445FC
:1065BC0006D15946484600F02BF808B17771EDE743
:1065CC00D9F808000368CDE90CA6CDE90A4BDC69C3
:1065DC003A4643462946A44601B0BDE8F04F604711
:1065EC002DE9F04107460C4615461E46FFF76DFF98
:1065FC0048B9B86803689F692A4633462146BC46A9
:10660C00BDE8F0416047BDE8F0817047002070475D
:10661C00814208B50ED0406803782A2B0CD049680B
:10662C000B782A2B08BF013100F084F8B0FA80F007
:10663C00400908BD0120FCE70020FAE710B5054C25
:10664C0013462CB10A4601460220AFF3008010BD60
:10665C002046FCE70000000010B5013902449042CE
:10666C0001D1002005E0037811F8014FA34201D0BD
:10667C00181B10BD0130F2E70A44914200F1FF33C0
:10668C0000D1704710B511F8014B03F8014F91423E
:10669C00F9D110BD884210B501EB020402D9844235
:1066AC00234607D8431EA14208D011F8012B03F84A
:1066BC00012FF8E7024401468A4200D110BD13F8BD
:1066CC00014D02F8014DF7E702440346934200D115
:1066DC00704703F8011BF9E738B5104B1D68AB6B1D
:1066EC000446B3B91820FEF7F1F80246A86320B9A6
:1066FC000B4B0C484221FEF709F90B490B4BC0E937
:10670C0000130B4B83600B23838100210120C2E912
:10671C000401AB6B00221C615A6138BD94E5032067
:10672C00216D0B00386D0B000E33CDAB34126DE6C2
:10673C00ECDE050010F8012B11F8013B012A28BFF3
:10674C009A42F7D0D01A7047034613F8012B002A4F
:10675C00FBD1181A0138704710B5024601448A4221
:10676C00134603D01C780132002CF8D1181A10BD36
:10677C001D400B0059400B0081400B0085400B0065
:10678C00000000005461626C657400623032353078
:10679C003731652D303964662D343138612D6265A1
:1067AC0066662D66363461656136323137303000BD
:1067BC0062303236303732652D303964662D3431E3
:1067CC0038612D626566662D6636346165613632D8
:1067DC003137363600696E73426174746572794C68
:1067EC006576656C0042303237303733452D3039A1
:1067FC0044462D343138412D424546462D463634DB
:10680C0041454136323137363700696E73436F6E0E
:10681C006E656374696F6E0066383934323864643F
:10682C002D303262322D343437392D393062612DAE
:10683C006634356362366364356237320063746D77
:10684C004261747465724C6576656C0046383935F6
:10685C00323844442D303242322D343437392D39CC
:10686C003042412D4634354342364344354237336A
:10687C000063746D436F6E6E656374696F6E006355
:10688C00323534313531642D366231392D3433386B
:10689C00632D613030312D356534643132626335AE
:1068AC00393436007461626C65744261747465725B
:1068BC00794C6576656C0063323536313531642D33
:1068CC00366231392D343338632D613030312D350A
:1068DC006534643132626335393439007461626C09
:1068EC0065744469736B537061636500433235356D
:1068FC00313531442D364231392D343338432D4125
:10690C003030312D3545344431324243353934370A
:10691C00007461626C6574436F6E6E656374696F4D
:10692C006E0038333239613331312D616564642D39
:10693C00346666652D623061622D6465663634613D
:10694C00393934623533007365697A757265416C17
:10695C0065727400776972696E672E626C6500539C
:10696C007461727420646973636F766572696E67A3
:10697C002073657276696365732E005065657220AD
:10698C00646576696365206973206D697373696EDC
:10699C006721004661696C656420746F20617070BA
:1069AC00656E6420706565722043656E7472616CEF
:1069BC00206465766963652E00436F6E6E65637443
:1069CC0065642062792043656E7472616C20646525
:1069DC00766963652E00446973636F6E6E656374CC
:1069EC0065642062792072656D6F746520646576CC
:1069FC006963652E004475706C696361746564200D
:106A0C00636861726163746572697374696320632E
:106A1C00616E6E6F742062652061646465642E0023
:106A2C004661696C656420746F20617070656E647A
:106A3C00206C6F63616C2063686172616374657252
:106A4C0069737469632E00000000000000000000F0
:106A5C0045490B00A9490B00234B0B00D3490B00F4
:106A6C0049490B00000000000000000041490B00E8
:106A7C00B7490B0043490B00D9490B0069490B007E
:106A8C0000000000000000003F490B00C5490B004E
:106A9C0005530B00DF490B0089490B000000000077
:106AAC0000000000000000000000FB349B5F800031
:106ABC00008000100000000000007BE327747BF8CE
:106ACC0015ACDD49A913000072F5FB349B5F800007
:106ADC00008000100000000000000000000000001A
:106AEC0000000000E75B0B00DD5B0B00D35B0B00D1
:106AFC00C95B0B00BD5B0B00B15B0B00455D0B0074
:106B0C004D5D0B00A55B0B009D5B0B00935B0B00BD
:106B1C00895B0B007D5D0B00000000000000000095
:106B2C00155C0B00055C0B00075C0B0061707000C2
:106B3C000000000000000000055D0B000F5D0B0065
:106B4C00195D0B00235D0B002D5D0B00395D0B00F7
:106B5C00455D0B004D5D0B00555D0B00615D0B0041
:106B6C00695D0B00735D0B007D5D0B0025592D25B8
:106B7C006D2D25645425483A254D3A2553257A0028
:106B8C0061736374696D6500000000000000000013
:106B9C0059600B00C5600B009D600B00695E0B001B
:106BAC006D600B0089600B007B600B0097600B0025
:106BBC005B600B005F600B00000000000000000039
:106BCC0059610B00C1610B0097610B00695E0B00F2
:106BDC0089610B005B610B006B610B00BB610B00EF
:106BEC007B610B0055610B000000000000000000F1
:106BFC00BB620B00B1620B00A7620B005D620B0065
:106C0C009B620B008F620B00455D0B004D5D0B0012
:106C1C0083620B007B620B0071620B0067620B00DE
:106C2C007D5D0B00537431395F53705F6D616B6523
:106C3C005F7368617265645F74616700886C0B00D8
:106C4C00306C0B00E86C0B005C6C0B000C6D0B00DB
:106C5C004E31305F5F637878616269763131375FCE
:106C6C005F636C6173735F747970655F696E666F77
:106C7C004500000000000000506C0B0071640B001C
:106C8C0085640B0019660B0019660B00EF640B0092
:106C9C0031640B00D7640B0099640B0063640B0028
:106CAC00E86C0B00B86C0B00506C0B004E31305F75
:106CBC005F637878616269763132305F5F73695FE8
:106CCC00636C6173735F747970655F696E666F4531
:106CDC000000000000000000AC6C0B0019650B00FC
:106CEC002D650B0019660B0019660B00EF640B0089
:106CFC0031640B00ED650B0079650B0041650B00F1
:106D0C00886C0B00146D0B00537439747970655FCB
:106D1C00696E666F005245454E54206D616C6C6F08
:106D2C006320737563636565646564002F746D70AF
:106D3C002F6A656E6B696E732D4743432D31302D71
:106D4C00706970656C696E652D34385F3230323025
:106D5C00313132345F313630363138303633392FC9
:106D6C007372632F6E65776C69622F6E65776C69D1
:106D7C00622F6C6962632F7374646C69622F726129
:106D8C006E642E630000000029450B00615B0B0054
:106D9C00F15B0B00F55C0B00555E0B00095F0B0003
:106DAC0009600B0045600B00C5620B000000000081
:046DBC0000000000D3
:046DC00000000000CF
:106DC4008C6B0B0098E5032000000000000000001D
:106DD40000000000000000000000000000000000AF
:106DE400000000000000000000000000000000009F
:106DF400000000000000000000000000000000008F
:106E0400000000000000000000000000000000007E
:106E1400000000000000000000000000000000006E
:086E2400000000000000000066
:106E2C00FFFFFFFF00000102030405060708090A23
:106E3C000B0C0D0E0F101112131415161718191A1E
:086E4C001B1C1D1E1F20280065
:046E54007856341226
:04000003B000401CED
:00000001FF
